:020000040800F2
:1000000038070020F5050008F9030008FB03000885
:10001000FF030008030400080704000800000000B4
:100020000000000000000000000000000B040008B9
:100030000D040008000000000F040008110400086F
:100040000F0600080F0600080F0600080F0600083C
:100050000F0600080F0600080F0600080F0600082C
:100060000F0600080F0600080F0600080F0600081C
:100070000F0600080F0600080F0600080F0600080C
:100080000F0600080F0600080F0600080F060008FC
:100090000F0600080F0600080F0600080F060008EC
:1000A0000F0600080F0600080F0600080F060008DC
:1000B0000F0600088B020008070300080F0600085F
:1000C0000F0600080F0600080F0600080F060008BC
:1000D0000F060008492D00080F0600080F0600084B
:1000E000610200080F0600080F0600080F0600084E
:1000F0000F0600080F0600080F0600080F0600088C
:100100000F0600080F060008BF0200080F060008CF
:10011000B93400080F0600080F0600080F06000893
:100120000F0600080F0600080F0600080F0600085B
:10013000DFF80CD004F04EFF0048004745010008EE
:10014000380700201CB500BF02F046FD4FF4A06048
:1001500000F062FA4FF4165003F04CF902F070FF11
:1001600002F0B2FE03F03AF802F080FF04F0F3FA76
:1001700003F092F87B4B7CA27C21684604F0CDFA18
:100180007A4B7BA21721684604F0C7FA79487A496E
:10019000086040F6E44102F037FF78A005F068F906
:1001A00016E075490968774A1144734A0846116098
:1001B00040F6E44102F028FF7348006808B90120C6
:1001C00000E00020704908604FF47A7002F041FDB1
:1001D000E7E770B59CB00446214601A803F0BAF9E0
:1001E0009DF86D00002839DD68A101A804F041FBED
:1001F00050B90DF1090004F0D7FB054603F01DF8D6
:1002000063A005F035F929E066A101A804F031FBEF
:1002100058B90DF1090004F0C7FBC5B2284602F039
:1002200041FF61A005F024F918E064A101A804F0E1
:1002300020FB98B99DF86D0002280FDB0DF113002B
:1002400004F0B2FB85B20DF1090004F0ADFB0646E7
:10025000294602F0D9FE5AA005F00AF91CB070BD7B
:1002600010B549482430006808B9012000E000209A
:1002700045492431086057480068401C55490860CA
:100280004FF4004000F081FB10BD10B50121524831
:1002900002F089FA90B151480078401C4F4908702B
:1002A00039482830006808B9012000E000203649AC
:1002B000283108600121484802F086FA10BD10B5C7
:1002C0000121474802F06FFAE0B14648006846490C
:1002D0000840444908602C480C30006808B90120E7
:1002E00000E0002028490C310860002039490860EE
:1002F0003C48006840F400403A4908600121384811
:1003000002F062FA10BD2DE9F0410121374802F0F8
:100310004AFA28B30021304801F07CFF2E492431ED
:100320000A882E49097802EB0141080104F0A3FC78
:1003300006462F4A2F4B04F0B4FB044604F0C0FCE1
:100340000D490860002024492431088023490870A1
:100350000121264802F038FA01211F4801F05AFF16
:10036000BDE8F0815A000020687A000052000020A9
:1003700064620000809698000C0000206F6B210DD5
:100380000A000000A08601008C8122424800000083
:1003900048534D5033383136205265636569766570
:1003A000640D0A00500000005045343335303320CE
:1003B00052656365697665640D0A000041000000BE
:1003C0004144393835342052656365697665640D7A
:1003D0000A0000000000002000040040040000208B
:1003E000000C004000040140FF7F0F0000080040A7
:1003F000556AF6402BB0F03F704700BFFEE700BFE4
:10040000FEE700BFFEE700BFFEE77047704770479A
:10041000704700000CB50020019000906C48006807
:1004200040F480306A49086000BF6948006800F401
:10043000003000900198401C0190009818B9019874
:10044000B0F5A06FF1D16248006800F4003010B13F
:100450000120009001E0002000900098012843D185
:100460005C48006840F010005A490860084600687F
:1004700020F0030008600846006840F002000860B1
:1004800053484068524948600846406848600846FA
:10049000406840F4806048600846406820F47C1062
:1004A00048600846406840F4E81048600846006824
:1004B00040F08070086000BF4548006800F00070A0
:1004C0000028F9D04248406820F0030040494860C5
:1004D0000846406840F00200486000BF3C48406861
:1004E00000F00C000828F9D10CBD10B5FFF792FF01
:1004F00010BD10B53648006840F00100344908606E
:100500000846406834490840314948600846006858
:10051000324908402E4908600846006820F48020CF
:1005200008600846406820F4FE0048604FF41F0051
:100530008860FFF7DAFF4FF000602949086010BDBE
:1005400010B5002100200022214B5B6803F00C0154
:1005500021B1042906D0082928D107E0214B224CDB
:10056000236027E01F4B204C236023E0184B5B687F
:1005700003F47010164B5B6803F48032022303EB24
:10058000904022B9194B4343174C23600DE0104BA8
:100590005B6803F4003323B1144B4343124C2360D4
:1005A00003E0104B4343104C236003E00D4B0E4C13
:1005B000236000BF00BF064B5B68C3F303130C4C02
:1005C000E15C094B1B68CB40074C236010BD000069
:1005D00000100240002002400000FFF8FFFFF6FE7E
:1005E00008ED00E000127A001000002000093D0034
:1005F000140000200648804706480047FEE7FEE753
:10060000FEE7FEE7FEE7FEE7FEE7FEE7FEE7FEE7C2
:10061000F30400083101000831490143314A1160F7
:10062000704770B5002100230F22C47804B32D4C0D
:10063000246804F4E064C4F5E064210AC1F1040311
:10064000CA40447804FA03F1847814402143090134
:10065000254C0678A155047804F01F050124AC4010
:1006600005786D11AD0005F1E025C5F8004109E000
:10067000047804F01F050124AC401C4D0678761167
:1006800045F8264070BD1A4A0A400243154B1B1F0D
:100690001A60704739B1134A121D12680243114B98
:1006A0001B1D1A6006E00F4A121D126882430D4B93
:1006B0001B1D1A607047042808D14FF0E02109691A
:1006C00041F004014FF0E022116107E04FF0E0211A
:1006D000096921F004014FF0E02211617047000028
:1006E0000000FA050CED00E000E400E080E100E02D
:1006F00080FFFF1F10B50121480700F098FF00217F
:100700004FF0005000F093FF10BD30B500220023E1
:100710005A4C226840F6FE748440A243D1E9004559
:100720002C438D682C43CD6844EA050303FA00F49A
:100730002243524C226030BD002101604160816043
:10074000C160704739B14D4A1268012383401A4392
:100750004A4B1A6006E0494A1268012383409A43D3
:10076000464B1A60704741B1444A12684FF48053B7
:1007700083401A43414B1A6007E0404A12684FF425
:10078000805383409A433D4B1A60704710B551B176
:100790003A4A121D126804090123A3401A43374B39
:1007A0001B1D1A6009E0354A121D12680409012355
:1007B000A3409A43314B1B1D1A6010BD40B12F4915
:1007C000091D096841F003012C4A121D116007E060
:1007D0002A49091D096821F00301284A121D1160E8
:1007E000704710B53AB1254B1B6801FA00F423435A
:1007F000224C236006E0214B1B6801FA00F4A3435E
:100800001E4C236010BD08B5002200921B4A0092C6
:1008100000F10802009B1A440092009A116008BD82
:1008200008B500220092154A009200F11402009BC4
:100830001A440092009A116008BD30B500240023CC
:10084000082802D142EA012401E042EA01440B4BAC
:1008500000F120052B441C6030BD08B50146002086
:100860000090064800902C2000EB9100009A104464
:1008700000900098006880B208BD0000007400403D
:10088000002044490860091D0860091D0860091D11
:10089000086041483F4914310860704700213D49D4
:1008A0008279002A3AD00A46126803689A430B46B6
:1008B0001A600A1D126803689A430B1D1A600279B8
:1008C00011440A6803681A430A60324A08321268FF
:1008D00003689A432F4B08331A601A1D1268036885
:1008E0009A432C4B0C331A604279102A0ED11A1FEE
:1008F000126803681A43274B08331A601A1D1268DE
:1009000003681A43234B0C331A600DE021494279E6
:1009100011440A6803681A430A6005E00279114429
:100920000A6803689A430A607047002101600171F8
:100930000C214171002181717047164910310968FD
:100940000143144A10321160704701460020114AD9
:10095000143212680A400AB1012000E000207047FA
:100960000C49143108607047014600200022094BF1
:100970001B6803EA0102074B14331B680B4013B1D9
:100980000AB1012000E000207047024914310860DC
:100990007047000000040140FFFF0F0030B943F230
:1009A000DB028100A1F1C0410A6005E043F2D202FE
:1009B0008100A1F1C0410A606FF07042411C8900C2
:1009C000A1F1C0410A608100A1F1C041C1F8042138
:1009D000704710280AD118214FF02042116640219B
:1009E00051664FF0FC319166D16610E01821F74A4C
:1009F000116040214FF02042C2F884104FF0FC31CA
:100A0000F24A083211604FF02042C2F88C10704751
:100A10001820EE492031086000200906C1F8A40022
:100A20004FF0FC30E94928310860091D0860091DB4
:100A300008607047D0E901121143C268114302698E
:100A400011434269114382691143C2691143026A29
:100A50001143426A1143826A1143C26A1143026B15
:100A6000114302689200A2F1C04211608168082916
:100A70000BD101688900A1F1C041096841F0400231
:100A800001688900A1F1C0410A60416B0968426BAD
:100A9000526841EA0211426B926841EA0221426BBC
:100AA000928941EA0241426B128A41EA0251426B49
:100AB000127D41EA0261426B926911430268521C45
:100AC0009200A2F1C0421160C16AB1F5804F1BD102
:100AD000816B0968826B526841EA0211826B9268ED
:100AE00041EA0221826B128A41EA0251826B127D35
:100AF00041EA0261826B9269114302689200A2F19D
:100B0000C042C2F8041107E06FF07042016889002A
:100B1000A1F1C041C1F80421704730B50021002285
:100B20000023446844F0080485682C43C5682C43BE
:100B300005692C43456944EA4524856944EA453101
:100B4000C4692468C5696D6844EA0524C5692D89AE
:100B500044EA0544C5692D7B44EA0562046A2468B9
:100B6000056A6D6844EA0524056A2D8944EA05444E
:100B7000056A2D7B44EA05630468102C05D14FF00B
:100B800020442166A266E36608E0904C21604FF0A5
:100B90002044C4F888208D4C0C34236030BD01689B
:100BA00041F01001426841EA4221826841EA423143
:100BB000864A20321160C1680968C268526841EAF9
:100BC0000221C268128941EA0241C268127B41EAED
:100BD00002617E4A2832116001690968026952681F
:100BE00041EA02210269128941EA02410269127B4B
:100BF00041EA0261754A2C32116041690968426913
:100C0000526841EA02214269128941EA024142697D
:100C1000127B41EA02614FF02042C2F8B0107047E7
:100C2000002101600221416000218160C1600161F9
:100C300041618161C16101624FF4805141624900AB
:100C400081620021C16201630F21426B1160426B1E
:100C50005160FF21426B91600F21426BD160426B6A
:100C60001161426B51610021426B91610F21826BD6
:100C70001160826B5160FF21826B91600F21826B4A
:100C8000D160826B1161826B51610021826B916135
:100C9000704710210160002141608160C1600161E5
:100CA00041618161FC21C2691160C2695160C26900
:100CB0009160C269D160026A1160026A5160026A81
:100CC0009160026AD16070470021016041608160DB
:100CD000FC21C2681160C2685160C2689160C2683C
:100CE000D160026911600269516002699160026914
:100CF000D160426911604269516042699160426904
:100D0000D160704751B18200A2F1C042126842F036
:100D100001038200A2F1C042136009E08200A2F147
:100D2000C04212682A4B1A408300A3F1C0431A60E4
:100D3000704799B1102808D14FF02042126E42F04E
:100D400004024FF020431A661DE0204A126842F068
:100D500004024FF02043C3F8802014E0102809D18A
:100D60004FF02042126E1A4BDB1E1A404FF0204308
:100D70001A6608E0154A1268154BDB1E1A404FF040
:100D80002043C3F88020704748B1104920310968DA
:100D900041F004014FF02042C2F8A01009E00B49D5
:100DA000203109680A4AD21E11404FF02042C2F891
:100DB000A0107047B9B110280CD14FF02042126E2C
:100DC00042F040024FF020431A661FE0800000A06E
:100DD000FEFF0F00724A126842F040024FF02043BB
:100DE000C3F8802012E0102808D14FF02042126E84
:100DF0006C4B1A404FF020431A6607E0684A1268AD
:100E0000684B1A404FF02043C3F8802070470146DA
:100E10000020102903D14FF02042506F02E0604AB9
:100E200014321068704710B5F2B1102807D14FF096
:100E300020435B6E0B434FF02044636632E0B0F515
:100E4000807F08D1564B1B1D1B680B434FF020447D
:100E5000C4F8843026E0524B24331B680B434FF018
:100E60002044C4F8A4301DE0102807D14FF02043DF
:100E70005B6E8B434FF02044636613E0B0F5807FD8
:100E800008D1474B1B1D1B688B434FF02044C4F80F
:100E9000843007E0424B24331B688B434FF02044DF
:100EA000C4F8A43010BD10B5024600200023102A5B
:100EB00003D14FF02044636E09E0B2F5807F03D187
:100EC000374C241D236802E0354C2434236803EAA0
:100ED00001040CB1012000E0002010BD102807D152
:100EE0004FF02042526E8A434FF020435A6613E07F
:100EF000B0F5807F08D12A4A121D12688A434FF04C
:100F00002043C3F8842007E0254A243212688A432C
:100F10004FF02043C3F8A420704770B5024600206C
:100F2000002300240025102A03D14FF02046736EC1
:100F300009E0B2F5807F03D1194E361D336802E017
:100F4000174E2436336803EA010403EAD10514B1CD
:100F50000DB1012000E0002070BD102808D14FF035
:100F60002042526E22EAD1024FF020435A6615E029
:100F7000B0F5807F09D10A4A121D126822EAD10217
:100F80004FF02043C3F8842008E0054A2432126859
:100F900022EAD1024FF02043C3F8A420704700009A
:100FA000800000A0BFFF0F0010B50446CC4884426B
:100FB00008D10121042000F02DFB0021042000F0C5
:100FC00029FB46E0C748844208D10121082000F0EF
:100FD00021FB0021082000F01DFB3AE0C2488442BA
:100FE00008D10121102000F015FB0021102000F095
:100FF00011FB2EE0BD48844208D10121202000F0E1
:1010000009FB0021202000F005FB22E0B8488442C3
:1010100008D10121402000F0FDFA0021402000F01D
:10102000F9FA16E0B348844208D10121802000F08B
:10103000F1FA0021802000F0EDFA0AE0AE48844287
:1010400007D10121801500F0E5FA0021A01500F07C
:10105000E1FA10BD10B50121084600F0DBFA0021CD
:10106000012000F0D7FA10BD2DE9F041024600251D
:101070000026002000230024002791F803C00CF074
:101080000F0591F803C00CF0100CBCF1000F03D059
:1010900091F802C04CEA050591F800C0BCF1000FC0
:1010A00031D0146800202BE04FF0010C0CFA00F353
:1010B000B1F800C00CEA03069E4220D183004FF035
:1010C0000F0C0CFA03F7BC4305FA03FC4CEA0404CA
:1010D00091F803C0BCF1280F06D14FF0010C0CFAB7
:1010E00000FCC2F814C00AE091F803C0BCF1480F3C
:1010F00005D14FF0010C0CFA00FCC2F810C0401CE6
:101100000828D1D31460B1F800C0BCF1FF0F34DD62
:10111000546800202EE000F1080C4FF0010808FA96
:101120000CF3B1F800C00CEA03069E4221D1830003
:101130004FF00F0C0CFA03F7BC4305FA03FC4CEA22
:10114000040491F803C0BCF1280F05D100F1080C8C
:1011500008FA0CF8C2F8148091F803C0BCF1480FEB
:1011600007D100F1080C4FF0010808FA0CF8C2F89A
:101170001080401C0828CED35460BDE8F0814FF6A3
:10118000FF710180022181700421C1707047024605
:10119000002093680B400BB1012000E00020704755
:1011A0000146886880B2704702460020D3680B4031
:1011B0000BB1012000E0002070470146C86880B2F2
:1011C000704701617047416170470AB1016100E0F9
:1011D00041617047C16070474FF480320A438261B9
:1011E0008161826182698269704702460020434BB7
:1011F00018684FF68073184040EA021008433F4BCE
:10120000186070473E49C8617047F0B50A46002330
:1012100000240021002500F00046B6F1004F02D165
:10122000364EF16901E0354E7168C0F3034583B273
:1012300000F44016B6F5401F08D121F070612F4E22
:10124000766826F070662D4F7E6012E000F48016FE
:10125000B6F5801F06D1032606FA05F4A14341F036
:10126000706106E0460D360103FA06F6B14341F01F
:10127000706122B1460D360103FA06F6314300F0E3
:101280000046B6F1004F02D11C4EF16101E01B4E49
:101290007160F0BD30B500228B071C0F0F2303FADD
:1012A00004F2164B08338C1053F824309343134C3C
:1012B00008348D1044F8253023468C1053F8243020
:1012C0008C07240F00FA04F423430C4C08348D10CF
:1012D00044F8253030BD0A49DC3108607047000011
:1012E00000080140000C01400010014000140140C2
:1012F00000180140001C0140002001400000014096
:1013000000002042DF48006840F00100DD4908602D
:1013100008464068DC490840DA49486008460068E9
:10132000DA490840D74908600846006820F4802060
:1013300008600846406820F4FE0048604FF41F0033
:1013400088607047CF49096821F48031CD4A116027
:101350001146096821F480211160B0F5803F03D067
:10136000B0F5802F0ED106E0C649096841F48031FE
:10137000C44A116007E0C349096841F4A021C14A89
:10138000116000E000BF00BF704710B501460022A9
:10139000002300204A11012A02D1BA4C236806E03A
:1013A000022A02D1B74C236A01E0B64C636A01F00D
:1013B0001F02012494401C400CB1012000E00020D9
:1013C00010BD38B5002000900024002500BF31205A
:1013D000FFF7DBFF05460098401C00900098B0F531
:1013E000A06F01D0002DF2D03120FFF7CEFF08B161
:1013F000012400E00024204638BD01460020A14A17
:10140000106820F0F80040EAC10010607047A04961
:1014100008607047024600209A4B586820F47C1000
:1014200042EA01031843974B586070479849086691
:10143000704701460020934A506820F0030008439B
:10144000506070478F48406800F00C0070470146BC
:1014500000208C4A506820F0F0000843506070472C
:1014600001460020874A506820F4E060084350603D
:10147000704701460020834A506820F4605040EADB
:10148000C1005060704729B17E4A527A02437D4BB9
:101490005A7204E07B4A527A82437A4B5A727047FE
:1014A0007B49D8310860704701460020754A506872
:1014B00020F440400843506070470021714A2032B8
:1014C0001170704A82F82010012802D004280AD135
:1014D00004E001216B4A2032117005E00521694AC0
:1014E0002032117000E000BF00BF704769490860FA
:1014F00070476449096A0143624A1162704765494D
:1015000044390860704730B50021002200240023D0
:101510005C4D6D6805F00C0121B1042905D0082946
:1015200023D105E05C4D056022E05B4D05601FE0C6
:10153000544D6D6805F47012524D6D6805F4803499
:10154000022505EB92421CB9544D554305600BE052
:101550004C4D6D6805F400351DB1504D5543056087
:1015600002E04D4D5543056002E04B4D056000BF64
:1015700000BF444D6D6805F0F0010909484D6B5CF2
:101580000568DD4045603F4D6D6805F4E061090A7E
:10159000434D6B5C4568DD4085603A4D6D6805F4F0
:1015A0006051C90A3E4D6B5C4568DD40C560354DF4
:1015B0006D6805F44041890B3A4D6B5CC568B5FB1D
:1015C000F3F5056130BD29B12E4A526902432D4B16
:1015D0005A6104E02B4A526982432A4B5A61704790
:1015E00029B1284A92690243264B9A6104E0254AB0
:1015F00092698243234B9A61704729B1214AD2698B
:101600000243204BDA6104E01E4AD26982431D4B3B
:10161000DA61704729B11B4AD2680243194BDA607C
:1016200004E0184AD2688243164BDA60704729B149
:10163000144A12690243134B1A6104E0114A1269F9
:101640008243104B1A617047124940390860704755
:101650000F49C86470470B49C87170470948406A10
:1016600040F0807007494862704701460020054AF3
:1016700092680A400AB1012000E000207047014949
:1016800088727047001002400000FFF8FFFFF6FE6E
:10169000000042428004424200127A0000093D00EC
:1016A000240000203400002010B50446BE488442C7
:1016B00008D101218014FFF7ADFF0021A014FFF72E
:1016C000A9FF16E0B948844208D101210014FFF7B0
:1016D000AEFF00212014FFF7AAFF0AE0B4488442BD
:1016E00007D10121C013FFF7A2FF0021E013FFF78C
:1016F0009EFF10BD10B50022028802F441520B88F3
:101700004C8823438C882343CC8823430C89234370
:101710004C8923438C892343CC8923431A43028079
:10172000838B4FF2FF74234083830B8A038210BDA7
:101730002DE9F04F85B005460C464FF00009022711
:101740004FF000084FF0010B0026B246A88B4FF275
:1017500040010840A88302202884B5F81C90A068A6
:10176000022801D100BF38E0A08810B94FF0010B6A
:1017700001E04FF0020B8D48854200D100E000BF30
:101780006846FFF7C0FEDDF800A0E088B0F5007FF6
:101790000AD14FEA1A2000EB80004000A168B0FB9C
:1017A000F1F0401D86B20BE04FEA4B10BAFBF0F0AF
:1017B00000EB80004000A168B0FBF1F0401D86B254
:1017C0000A20B6FBF0F606F00108A6EB0800C0F30D
:1017D0004F074FF6FF7000EA0828022F01DBFF2FAA
:1017E00002DD02274FF00008E08840EA0800384395
:1017F0002884A088A1890843618808432188084378
:1018000040F4006040EA0909A5F81C9005B0BDE865
:10181000F08F0021018041808180C1800181418160
:101820008181C181072101827047002101804180AF
:101830008180C1800221816000218181704721B1B6
:10184000028842F04002028004E002884FF6BF7333
:101850001A400280704721B1828B42F480628283F9
:1018600004E0828B4FF6FF331A408283704730B515
:10187000002400230C110125A540ABB21AB18588C4
:101880001D43858002E085889D43858030BD1AB167
:1018900083880B43838002E083888B438380704777
:1018A000818170470146888970474FF6FF629142F7
:1018B00004D0028842F48072028004E002884FF66D
:1018C000FF631A400280704721B1828842F004020F
:1018D000828004E082884FF6FB731A408280704752
:1018E00002884FF2FF731A40028002880A43028086
:1018F0007047018841F480510180704721B102880E
:1019000042F40052028004E002884DF6FF731A4050
:101910000280704702460020012901D0108B00E0B0
:10192000908A70470146088A7047B1F5804F04D10C
:10193000028842F48042028004E002884BF6FF7382
:101940001A40028070470246002013890B400BB1F9
:10195000012000E000207047CA4302817047F0B5C3
:101960000246002000240023002501F00F07012675
:10197000BE40B4B20B1101269E40B3B2968806EA6F
:1019800003051689264016B10DB1012000E00020A4
:10199000F0BD10B5002201F00F040123A3409AB25C
:1019A000D343038110BD00000030014000380040E7
:1019B000003C004010B50446FE48844208D1012195
:1019C000C014FFF727FE0021E014FFF723FEC4E058
:1019D000B4F1804F08D101210846FFF728FE00210D
:1019E0000120FFF724FEB8E0F348844208D101212A
:1019F0000220FFF71CFE00210220FFF718FEACE0DA
:101A0000EE48844208D101210420FFF710FE002196
:101A10000420FFF70CFEA0E0E948844208D1012130
:101A20000820FFF704FE00210820FFF700FE94E0E5
:101A3000E448844208D101211020FFF7F8FD00217D
:101A40001020FFF7F4FD88E0DF48844208D101212F
:101A50002020FFF7ECFD00212020FFF7E8FD7CE0CF
:101A6000DA48844208D101214014FFF7D3FD002158
:101A70006014FFF7CFFD70E0D548844209D1012101
:101A8000C804FFF7C7FD00214FF40020FFF7C2FD97
:101A900063E0D048844209D101210805FFF7BAFD6F
:101AA00000214FF48010FFF7B5FD56E0CA4884428C
:101AB00009D101214805FFF7ADFD00214FF40010C9
:101AC000FFF7A8FD49E0C548844208D10121402024
:101AD000FFF7ADFD00214020FFF7A9FD3DE0C04824
:101AE000844208D101218020FFF7A1FD0021802040
:101AF000FFF79DFD31E0BB48844208D101218015EC
:101B0000FFF795FD0021A015FFF791FD25E0B648F0
:101B1000844209D101210804FFF77CFD00214FF424
:101B20008030FFF777FD18E0B048844209D10121E9
:101B30004804FFF76FFD00214FF40030FFF76AFD06
:101B40000BE0AB48844208D101218804FFF762FD15
:101B500000214FF48020FFF75DFD10BD00220288B8
:101B6000944B98420ED0994B98420BD0B0F1804FD5
:101B700008D0914B984205D0904B984202D0904BA0
:101B8000984204D14FF68F731A404B881A438D4BFD
:101B9000984207D08C4B984204D04FF6FF431A402E
:101BA000CB881A4302808B8883850B880385814B01
:101BB00098420BD0854B984208D08B4B984205D069
:101BC0008A4B984202D08A4B984201D10B7A038605
:101BD00001238382704770B5002400220023058C06
:101BE0004FF6FE7635400584028C8388048B4FF6D1
:101BF0008F752C40B51E2C400D882C43751E2A4035
:101C00000D892A434D882A436A4DA8420BD06F4D57
:101C1000A84208D0744DA84205D0744DA84202D005
:101C2000734DA84213D14FF6F7752A404D892A43C8
:101C30004FF6FB752A408D882A434FF6FF652B40EF
:101C40004FF6FF552B408D892B43CD892B43838045
:101C50000483CD888586028470BD70B5002400227F
:101C60000023058C4FF6EF7635400584028C83887F
:101C7000048B48F6FF752C404FF6FF452C400D882D
:101C80004FF6FF7606EA05252C434FF6DF752A400E
:101C90000D8906EA05152A434D8806EA05152A43EB
:101CA000444DA84202D0494DA8421DD14FF67F7540
:101CB0002A404D894FF6FF7606EA05152A434FF66E
:101CC000BF752A408D8806EA05152A434FF6FF3571
:101CD0002B404FF2FF752B408D8906EA85052B437B
:101CE000CD8906EA85052B4383800483CD8805874B
:101CF000028470BD70B5002400220023058C4FF6CD
:101D0000FF6635400584028C8388848B4FF68F757F
:101D10002C404FF6FC752C400D882C434FF6FF5598
:101D20002A400D894FF6FF7606EA05252A434D889D
:101D300006EA05252A431F4DA84202D0234DA8429A
:101D40001DD14FF2FF752A404D894FF6FF7606EA06
:101D500005252A434FF6FF352A408D8806EA0525DA
:101D60002A434EF6FF752B404DF6FF752B408D89AB
:101D700006EA05152B43CD8906EA05152B4383801A
:101D80008483CD888587028470BD70B500220023CE
:101D90000024058C4EF6FF7635400584038C84883C
:101DA000828B48F6FF752A404FF6FF452A400D8882
:101DB00020E00000002C014000040040000800402A
:101DC000000C0040001000400014004000340140AE
:101DD000004C0140005001400054014000180040F8
:101DE000001C004000200040004001400044014031
:101DF000004801404FF6FF7606EA05252A434DF6D6
:101E0000FF752B400D8906EA05352B434D8806EA00
:101E100005352B43FA4DA84202D0FA4DA84208D10D
:101E20004BF6FF752C408D894FF6FF7606EA851537
:101E30002C4384808283CD88A0F84050038470BDF9
:101E4000828B4FF2FF331A408283828B4FF6FF73EF
:101E500003EA01231A4382837047F0B50C46154606
:101E6000002200210026078C4EF6FF7C07EA0C07B3
:101E70000784828B018C4FF6FF7707EA043640F621
:101E8000FF473A404FF6FF7707EA05273A434FF6F8
:101E9000FF7707EA03373A43D94FB8420ED0D94FFC
:101EA000B8420BD0B0F1804F08D0D74FB84205D020
:101EB000D64FB84202D0D64FB84206D14DF6FF7782
:101EC000394046F48057394305E047F6FF5739401B
:101ED00044F48057394382830184F0BD828B4FF6EE
:101EE000F3731A408283828B0A4382837047F0B572
:101EF0000C461546002200210026078C4FF6FF6C89
:101F000007EA0C070784828B018C4FF6FF7707EAFC
:101F100004264FF60C773A404FF6FF7707EA03178F
:101F20002F433A43B64FB8420ED0B64FB8420BD00B
:101F3000B0F1804F08D0B44FB84205D0B34FB8428B
:101F400002D0B34FB84206D14FF6FF57394046F49E
:101F50008077394305E04FF2FF57394044F48077EA
:101F6000394382830184F0BD028B4FF2FF331A4064
:101F70000283028B4FF6FF7303EA01231A430283A5
:101F80007047F0B50C461546002200210026078C4C
:101F90004FF6EF7C07EA0C070784028B018C4FF6A3
:101FA000FF7707EA041640F6FF473A404FF6FF77FF
:101FB00007EA03373A434FF6FF7707EA05273A4324
:101FC0008F4FB8420ED08F4FB8420BD0B0F1804F38
:101FD00008D08D4FB84205D08C4FB84202D08C4FFC
:101FE000B84206D14FF6DF77394046F01007394343
:101FF00005E04FF65F77394044F01007394302831C
:102000000184F0BD028B4FF6F3731A400283028BFA
:102010000A4302837047F0B50C46154600220021A2
:10202000068C4FF6FE773E400684028B018C4FF6FD
:102030000C7632407E1C06EA03162E433243704E65
:10204000B0420ED06F4EB0420BD0B0F1804F08D0EE
:102050006D4EB04205D06D4EB04202D06C4EB042D3
:1020600006D14FF6FD76314044F00106314305E0DC
:102070004FF6F576314044F0010631430283018486
:10208000F0BD70B505460C465D4885420ED05D48F2
:1020900085420BD0B5F1804F08D05B48854205D012
:1020A0005A48854202D05A48854200D100E000BF1C
:1020B000208850B92389A28861882846FFF7ABFFA2
:1020C000E1882846FFF79EFF25E0208804280AD1F2
:1020D0002389A28861882846FFF753FFE1882846B4
:1020E000FFF742FF17E0208808280AD12389A28839
:1020F00061882846FFF7FBFEE1882846FFF7EEFEE1
:1021000009E02389A28861882846FFF7A6FEE188B6
:102110002846FFF795FE70BD2DE9F04105460C46B7
:1021200000260127608808B9022600E00026A08862
:10213000012801D1022700E001272088A0B92389C6
:10214000A28861882846FFF766FFE1882846FFF7E6
:1021500059FF23893A4631462846FFF712FFE188A6
:102160002846FFF701FF13E02389A28861882846EB
:10217000FFF707FFE1882846FFF7F6FE23893A4676
:1021800031462846FFF747FFE1882846FFF73AFF28
:10219000BDE8F0810A884B881A438B881A43CB88A4
:1021A0001A430B891A434B891A438B891A43A0F8A7
:1021B000442070474FF6FF71818000210180C1806B
:1021C0004180017270470021018041808180C1807F
:1021D000018141818181C18170470021018041805D
:1021E000012181800021C18001817047002101808F
:1021F00041808180C18001814181818170470000DF
:10220000002C014000340140000400400008004060
:10221000000C004021B1028842F00102028004E07B
:1022200002884FF6FE731A400280704731B1B0F851
:10223000442042F40042A0F8442005E0B0F84420D5
:10224000C2F30E02A0F8442070471AB183890B43F1
:10225000838102E083898B43838170478182704749
:1022600041EA0203A0F8483070471AB183890B4352
:10227000838102E083898B438381704701894FF614
:10228000F8721140018170470A46002101894FF61A
:102290008F73194011430181704730B504460D46D4
:1022A00029462046FFF7F0FF208940F007002081F3
:1022B00030BD2DE9F04104460D4616461F46602DFF
:1022C00006D13B46012231462046FFF75AFE05E083
:1022D0003B46012231462046FFF79DFE2946204617
:1022E000FFF7D2FF208940F007002081BDE8F08190
:1022F00030B50C4600210189C9B24FF6FF7505EAD9
:102300000325154325432943018130BD2DE9F041C3
:1023100005460E4617469846002443463A4631463F
:102320002846FFF7E5FF2C894FF6F870044044F08B
:1023300007044FF68F70044044F070042C81BDE810
:10234000F081F0B504460D4616461F463B46324620
:1023500029462046FFF7CCFF208940F480402081A9
:10236000F0BD0185828270470A46002101884FF640
:102370008F731940114301807047F0B50C46154624
:102380001E460021002200230189028B038C4FF698
:10239000F877394021434FF6FC473A4040F20117A5
:1023A0003A434FF6DD773B404FF6FF7707EA0617D3
:1023B0002F433B43018102830384F0BD0A46002181
:1023C000018B4FF68F7319401143018370470A4602
:1023D0000021018B48F6FF7319404FF6FF7303EAA3
:1023E00002231943018370470A460021818B4FF66F
:1023F0008F7319401143818370470A460021818BF6
:1024000048F6FF7319404FF6FF7303EA022319439E
:102410008183704721B1028842F08002028004E08B
:1024200002884FF67F731A400280704721B182887C
:1024300042F00402828004E082884FF6FB731A4067
:102440008280704721B1828842F00802828004E0D5
:1024500082884FF6F7731A408280704721B18288D4
:1024600042F00102828004E082884FF6FE731A4037
:10247000828070470A460021018B4FF6F77319409E
:102480001143018370470A460021018B4FF2FF730D
:1024900019404FF6FF7303EA022319430183704783
:1024A0000A460021818B4FF6F7731940114381834F
:1024B00070470A460021818B4FF2FF7319404FF697
:1024C000FF7303EA02231943818370470A46002100
:1024D000018B4FF6FB7319401143018370470A4685
:1024E0000021018B4FF6FF3319404FF6FF7303EACB
:1024F00002231943018370470A460021818B4FF65E
:10250000FB7319401143818370470A460021818B78
:102510004FF6FF3319404FF6FF7303EA02231943C6
:10252000818370470A460021018B4FF67F73194063
:102530001143018370470A460021018BC1F30E014C
:102540004FF6FF7303EA02231943018370470A46DB
:102550000021818B4FF67F731940114381837047AF
:102560000A460021818BC1F30E014FF6FF7303EA87
:1025700002231943818370470A460021018C4FF6DC
:10258000FD7319401143018470470A460021018CF4
:102590004FF6F77319401143018470470A46002132
:1025A000018C4FF6DF7319404FF6FF7303EA0213F5
:1025B0001943018470470A460021018C4FF67F734E
:1025C00019404FF6FF7303EA021319430184704761
:1025D0000A460021018C4FF6FF5319404FF6FF7356
:1025E00003EA02231943018470470A460021018C43
:1025F0004FF2FF7319404FF6FF7303EA02231943AA
:10260000018470470A460021018C4DF6FF73194082
:102610004FF6FF7303EA023319430184704730B564
:10262000002301248C40A3B2048C9C430484048CBA
:1026300002FA01F5ADB22C43048430BD30B500235D
:1026400004248C40A3B2048C9C430484048C02FABE
:1026500001F5ADB22C43048430BD70B503460020B3
:1026600000241846183001258D40ACB21D8CA543BE
:102670001D8409B1082909D100EB6100056825F026
:10268000700505600568154305600EE00D1FC5F374
:102690004E052844056825F4E045056005684FF6B9
:1026A000FF7606EA02263543056070BD21B1028837
:1026B00042F00202028004E002884FF6FD731A40E5
:1026C0000280704721B1028842F00402028004E0D7
:1026D00002884FF6FB731A400280704721B182884E
:1026E00042F08002828004E082884FF67F731A40B5
:1026F0008280704702884FF6F7731A400280028882
:102700000A430280704782884FF68F731A40828096
:1027100082880A438280704702894FF6F8731A4014
:10272000028102890A430281704702894FF67F7352
:102730001A40028102890A430281704781847047EE
:102740008185704781867047018770478187704710
:10275000A0F84010704702884FF6FF431A400280ED
:1027600002880A43028070470146888E70470146FE
:10277000088F70470146888F70470146B1F84000C6
:1027800070470146888C70470146088D70470246A5
:102790000020138A0B400BB1012000E0002070479D
:1027A000CA430282704730B502460020002300244D
:1027B000158A05EA0103958905EA010413B10CB1F4
:1027C000012000E0002030BDCA43028270470000B3
:1027D00010B50446FB48844209D101218803FEF765
:1027E00019FF00214FF48040FEF714FF32E0F64855
:1027F000844209D101214804FEF719FF00214FF45A
:102800000030FEF714FF25E0F048844209D1012191
:102810008804FEF70CFF00214FF48020FEF707FF2D
:1028200018E0EB48844209D10121C804FEF7FFFEFD
:1028300000214FF40020FEF7FAFE0BE0E548844249
:1028400008D101210805FEF7F2FE00214FF48010A7
:10285000FEF7EDFE10BD2DE9F04786B005460E46A9
:102860000024A24600BFA1460027B08900B100BFE6
:102870002F462C8A4CF6FF700440F08804432C82CB
:10288000AC894EF6F3100440B08831890843718951
:1028900008430443AC81AC8A4FF6FF400440B08942
:1028A0000443AC8201A8FEF72EFEC648874202D13F
:1028B000DDF810A001E0DDF80CA0A88900F40040CC
:1028C00040B10AEBCA0000EB0A1031684900B0FBC6
:1028D000F1F807E00AEBCA0000EB0A103168890042
:1028E000B0FBF1F86420B8FBF0F00401200964218A
:1028F00001FB1089A88900F4004040B1322000EBB0
:10290000C900B0FBF1F000F00700044308E03220FA
:1029100000EB09106421B0FBF1F000F00F0004435C
:102920002C8106B0BDE8F0874FF4165101600021FC
:102930008180C18001810C2141810021818170470A
:1029400010B502460020108A4FF2FF0318400B8892
:102950004C8823438C882343CC882343184310821C
:1029600010BD0021018041808180C180704721B16C
:10297000828942F40052828104E082894DF6FF731D
:102980001A4082817047F0B50346002400260025D6
:10299000002040F66A17B94200D100BF1846C1F3C3
:1029A000421401F01F06012707FA06F5012C01D198
:1029B0000C3004E0022C01D1103000E014301AB1C8
:1029C00007682F43076002E00768AF430760F0BD68
:1029D0001AB1838A0B43838202E0838A8B4383820A
:1029E0007047028A4FF6F0731A400282028A0A4345
:1029F0000282704782894FF2FF731A408281828976
:102A00000A438281704721B1828942F002028281A9
:102A100004E082894FF6FD731A4082817047028A72
:102A20004FF6DF731A400282028A0A43028270471D
:102A300021B1028A42F48042028204E0028A4BF60B
:102A4000FF731A4002827047C1F308028280704708
:102A500001468888C0F308007047818941F0010170
:102A600081817047028BD2B20283028B42EA01223B
:102A700002837047028B02F47F420283028B0A4377
:102A80000283704721B1828A42F02002828204E0F0
:102A9000828A4FF6DF731A408282704721B1828AA0
:102AA00042F01002828204E0828A4FF6EF731A40ED
:102AB0008282704721B1828A42F00802828204E059
:102AC000828A4FF6F7731A408282704721B1828959
:102AD00042F40042828103E08289C2F30E028281C5
:102AE000704721B1828A42F40062828204E0828AC5
:102AF0004FF2FF731A4082827047828A4FF6FB734F
:102B00001A408282828A0A438282704721B1828A75
:102B100042F00202828204E0828A4FF6FD731A407C
:102B20008282704702460020B1F5007F00D100BFCD
:102B300013880B400BB1012000E00020704701F426
:102B40000072B2F5007F00D100BFCA430280704717
:102B500070B50246002400230025002040F66A16C6
:102B6000B14200D100BFC1F3421501F01F0301269D
:102B700006FA03F3012D02D19689334006E0022DB7
:102B800002D1168A334001E0968A33400C120126A6
:102B900006FA04F41688344013B10CB1012000E0A9
:102BA000002070BD10B50022002340F66A14A14237
:102BB00000D100BF0A1201249440A3B2DC43048078
:102BC00010BD0000003801400044004000480040B3
:102BD000004C00400050004010B56FF00400FDF7BD
:102BE0006AFD2E4800682E49B0FBF1F02D490870AF
:102BF0000846007800EB4001C1EBC0104FF6FF71B2
:102C000001EAC0002849088010BD0146254A127813
:102C10004A434FF0E0235A6100229A611A46126932
:102C200042F001021A6100BF4FF0E022106900F08B
:102C300001021AB100F48032002AF5D04FF0E022F0
:102C4000126922F001024FF0E0231A6100229A611A
:102C500070470146144A12884A434FF0E0235A61F4
:102C600000229A611A46126942F001021A6100BFFD
:102C70004FF0E022106900F001021AB100F4803236
:102C8000002AF5D04FF0E022126922F001024FF045
:102C9000E0231A6100229A617047000010000020B2
:102CA00000127A00380000203A00002000BF704770
:102CB00010B586B00446012144F20400FEF790FCF2
:102CC0004FF40070ADF8140003208DF816001820A2
:102CD0008DF8170005A93B48FEF7C6F94FF4806050
:102CE000ADF8140004208DF8170005A93548FEF74B
:102CF000BBF925208DF8000003208DF801008DF828
:102D0000020001208DF803006846FDF78AFC01945B
:102D10000020ADF80800ADF80A00ADF80C00ADF8E1
:102D200010000C20ADF80E0001A92748FFF793FD15
:102D3000012240F225512448FFF725FE01212248B7
:102D4000FFF715FE06B010BD10B540F225511E4824
:102D5000FFF7FEFE10B31C48FFF77AFEC4B21B4813
:102D6000008800F40040C8B91848008800F480408A
:102D700060B10A2C03D000201449088020E01348D9
:102D8000008840F400401149088019E00D2C06D15C
:102D90000E48008840F480400C49088010E00B4841
:102DA0000088C0F30D000A490C5408480088401CF4
:102DB0000649088008460088C72801DD00200880F1
:102DC00010BD000000080140003801404000002014
:102DD0008801002010B501208F490860FFF739FFF6
:102DE00000208E49C1F8940110BD70B5054600243D
:102DF00005E0601CC4B2C82C01DD002070BD0221BA
:102E00008748FEF7A0FD0028F3D029468448FEF746
:102E100047FD002405E0601CC4B2C82C01DD002081
:102E2000ECE701217E48FEF78EFD0028F3D07C48B8
:102E3000FEF738FDC0B2E1E770B5054600207649DF
:102E4000091D08600720FFF7D0FF032406E0E1001A
:102E500025FA01F1C8B2FFF7C8FF641E002CF6DAAC
:102E600001206D49091D0860FFF7B4FF0120FFF73D
:102E7000F0FE70BD10B50120674908310860FFF70A
:102E8000E8FE00206549C1F89C010120FFF7E1FE42
:102E900010BD10B504466348848101466048FEF7C2
:102EA00029FC01215E48FEF7CAFC10BD10B50120C7
:102EB0005D490860FFF7CDFE00205C49C1F8900134
:102EC0000120FFF7C6FE10BD08B5012141F20C003C
:102ED000FEF786FB1020ADF800008DF803000320FC
:102EE0008DF8020069465248FEF7BEF8E820ADF8BA
:102EF000000010208DF8030003208DF802006946C1
:102F00004C48FEF7B1F8E020ADF8000018208DF82D
:102F1000030003208DF8020069464548FEF7A4F837
:102F2000E0214348FEF74DF920214248FEF74BF9D6
:102F3000C8214048FEF745F900203A4908804FF47F
:102F400082704880002088800220C880012008818B
:102F500040024881382088810020C88107200882EB
:102F60002F48FEF7C7FB01212D48FEF768FCFFF74D
:102F70009DFFFF20FFF739FF2020FFF78AFF0A207F
:102F8000FFF767FEFFF776FF2B48FFF755FF08BDF9
:102F9000FEB506460020019002900024009000BF7C
:102FA00006E0C10026FA01F1C9B20DF80010401C7C
:102FB0000428F6DB00200EE0042808DA1DF80010D3
:102FC0001E4A02FB014401AA1454240A02E001AA89
:102FD0001454240A401C0628EEDB00200E49091D6B
:102FE00008600220FFF701FF052504E001A9485D04
:102FF000FFF7FBFE6D1E002DF8DA01200649091DC2
:103000000860FFF7E7FEFEBD70B504460D4620469A
:10301000FFF7BEFF70BD0000948121420080214275
:103020000030014050020020900121420000214266
:1030300000080140000C014040004A108E79150044
:1030400008B501212020FEF7CBFA43F24800ADF885
:10305000000003208DF8020010208DF8030069465F
:103060000148FEF701F808BD0014014008B5012130
:103070000820FEF7B5FA1C20ADF8000010208DF8EE
:10308000030003208DF8020069462A48FDF7ECFF93
:103090000020294908602949C1F888012649091FEB
:1030A000086008BD70B5044680261F2C01DD1F2076
:1030B00000E020460446012C01DA012000E0204611
:1030C000044600201C4908601C49C1F888011A49BF
:1030D000091F0860A006040E04F07C040520FFF719
:1030E00094FD00251BE006EA040020B101201249EE
:1030F000091F086003E000200F49091F08607610CF
:1031000001200D49083908600320FFF77EFD0020EB
:103110000A49C1F888010320FFF777FD6D1C082DCF
:10312000E1DB0420FFF771FD012003490860002066
:1031300070BD0000000C01409081214200802142BE
:10314000024607E010780B78984201D000207047C3
:10315000521C491C10780028F4D108780028F1D1BD
:103160000120F4E702E000210170401C01780029F1
:10317000F9D170472DE9F04105460F464FF00008A0
:103180000026284601F06EFB10B90020BDE8F08152
:1031900000241BE0285D202809D0285D06EB86016D
:1031A00007EB410101F8080008F101080DE000E01B
:1031B000641C601C285C2028FAD0601C285C08B9BC
:1031C000701CE3E7761C4FF00008641C284601F0F1
:1031D00049FBA042DED8701CD8E7000000B585B0DE
:1031E00001210420FEF7FCF901214807FEF705FA4A
:1031F0001020ADF8100000208DF8130003208DF88A
:10320000120004A92148FDF72FFF10211F48FDF7E8
:10321000D8FF0020009001900290022003906946A0
:103220000020FDF772FA01210020FDF78BFA002142
:103230000846FDF7E8FA05B000BD2DE9F047044661
:10324000204601F00FFD81461149484601F0EBFB95
:1032500081464FF08B41484601F0B3FB824601F0B6
:1032600048FD07464FF066320A4B01F08CFC0546DC
:1032700001F052FD8146484601F00EFD85B2294617
:103280000020FDF7C0FABDE8F0870000000801400B
:1032900000007A4466660A4008B501214020FEF726
:1032A0009FF901215048FDF7B0FF7F20ADF80000E5
:1032B00048208DF8030069464C48FDF7D5FE08BD4F
:1032C00010B5044614B101204949087048480078F7
:1032D00000285AD001214548FDF759FFE8B10221E5
:1032E0004248FDF754FFC0B104214048FDF74FFFAD
:1032F00098B108213D48FDF74AFF70B110213B48C5
:10330000FDF745FF48B120213848FDF740FF20B1C7
:1033100040213648FDF73BFF78BB0A20FFF799FCB8
:1033200000203349087001213048FDF730FF08B90B
:10333000012010BD02212D48FDF729FF08B9022008
:10334000F7E704212948FDF722FF08B90320F0E739
:1033500008212648FDF71BFF08B90420E9E71021E2
:103360002248FDF714FF08B90520E2E720211F4895
:10337000FDF70DFF10B90620DBE706E040211B48F2
:10338000FDF705FF68BB0720D3E701211748FDF7CC
:10339000FEFE012825D102211448FDF7F8FE012880
:1033A0001FD104211148FDF7F2FE012819D108218F
:1033B0000E48FDF7ECFE012813D110210B48FDF754
:1033C000E6FE01280DD120210848FDF7E0FE012886
:1033D00007D140210548FDF7DAFE012801D1044953
:1033E00008700020A5E7000000023000001801402E
:1033F0004200002010B586B0044601211020FEF7DF
:10340000EFF80121C804FEF7F8F86348FFF7E0F988
:103410004FF48060ADF8140003208DF816001820DA
:103420008DF8170005A95D48FDF71EFE4FF40060FA
:10343000ADF8140004208DF8170005A95748FDF7D2
:1034400013FE34208DF8000003208DF801008DF864
:10345000020001208DF803006846FDF7E2F80194B0
:103460000020ADF80800ADF80A00ADF80C00ADF88A
:1034700010000C20ADF80E0001A94748FFF7EBF94A
:10348000012240F225514448FFF77DFA01214248CC
:10349000FFF76DFA06B010BD70B504460D46E1B2F7
:1034A0003D48FFF7D1FA00BF80213B48FFF73AFBC8
:1034B0000028F9D0204670BD10B540F2255136489D
:1034C000FFF746FB10B33448FFF7C2FAC4B23448E2
:1034D000008800F40040C8B93148008800F48040FA
:1034E00060B10A2C03D000202D49088020E02C4830
:1034F000008840F400402A49088019E00D2C06D1CC
:103500002748008840F480402549088010E024487E
:103510000088C0F30D0023490C5421480088401C4A
:103520001F49088008460088C72801DD0020088060
:1035300010BD70B505460C461948008800F40040DF
:1035400038B11848A0470020154908801548FFF7F2
:1035500009FE70BD30B5A1B005460C466C2106A829
:1035600001F069F9142101A801F065F901AB06AA7F
:103570000DA1204601F08CF90DF11D0101A8FFF706
:10358000F9FDC0B28DF881006A2206A9284601F033
:1035900039F921B030BD0000004C0040001001405E
:1035A0004400002062020020257320255B5E3B5D05
:1035B00000000000F74908807047F649891C088020
:1035C0007047F448801C00887047F24A1080921CB3
:1035D0001180704710B504462046FFF7EBFF052029
:1035E000FFF713FBFFF7EDFF10BDEB48C079E9498A
:1035F00008807047E749891C0880704730B501464C
:1036000001F01F04C1F34513CA0AE50205EB431597
:103610001544A8B230BD00BF011EA0F10102D0B216
:10362000FAD1704710B503460C46DB48808849F252
:103630004131884205D0D848808846F60401884246
:1036400014D1D549087AFFF7B5FF1812FFF7B5FF77
:10365000D8B2FFF7B2FFD049487AFFF7ABFF20128C
:10366000FFF7ABFFE0B2FFF7A8FF12E0CA4880798E
:10367000012804D1C8480088401EC01A83B2C64938
:10368000087A1946FFF7A1FFC349487A2146FFF798
:103690009CFF10BD2DE9F04105460E460024002791
:1036A000A046BD480088A84203DDBB484088B04220
:1036B00002DC0020BDE8F08131462846FFF7B2FF6A
:1036C000B548808849F24131884205D0B2488088A7
:1036D00046F60401884203D12E20FFF76BFF02E07B
:1036E0002220FFF767FFAC48808849F220318842EA
:1036F00002D10220FFF78FFFA648801C008800B18E
:1037000000240220FFF787FFA248801C0488A248FB
:10371000808849F2413188420CD10220FFF77BFFBB
:103720009C48801CB0F80080E7B24FF6FF7000EABA
:10373000072708E09848808846F60401884202D1AD
:103740009448801C04889448808849F22531884236
:1037500016D09148808844F23551884210D08E4866
:103760008088091F88420BD08B48808848F68911D1
:10377000884205D0884880884BF20551884201D1A3
:10378000204697E78448808849F24131884207D132
:10379000E012C002B91240EA411040EAE82089E78D
:1037A0002046FFF72BFF85E700B57B48808849F26C
:1037B0004131884205D07848808846F60401884225
:1037C00003D12920FFF7F6FE04E040F27311072031
:1037D000FFF7FBFE00BD00B56F48808849F241311C
:1037E000884205D06C48808846F60401884203D19F
:1037F0002820FFF7DFFE03E000210720FFF7E5FEAA
:1038000000BD70B504460023002663488079012876
:103810001ED16148808846F60401884218D0082CE1
:1038200015D2DFE804F00406080A0C0E1012062474
:103830000DE007240BE0042409E0052407E001243F
:1038400005E0002403E0032401E0022400BF00BFE0
:103850005148808849F24131884205D04E488088DD
:1038600046F6040188427CD1082C1CD2DFE804F023
:103870000406090C0F12151800BF14E043F0800372
:1038800011E043F040030EE043F0C0030BE043F0CF
:10389000200308E043F0600305E043F0A00302E0EA
:1038A00043F0E00300BF00BF362643F008033A4868
:1038B000808846F60401884201D143F0020319468C
:1038C0003046FFF782FE03F0200068B132480088DE
:1038D00031494988884214DA2F48058840882E49A2
:1038E0000880084645800CE02B4800882A49498812
:1038F000884206DD28480588408827490880084610
:1039000045802549087AFFF755FE0020FFF755FE50
:103910000020FFF752FE20490988491EC1F30F20FD
:10392000FFF74BFE1C490978491EC8B2FFF745FE58
:103930001949487AFFF73EFE0020FFF73EFE0020BF
:10394000FFF73BFE14494988491EC1F30F20FFF7DA
:1039500034FE11498978491EC8B2FFF72EFE36E0C1
:10396000FFE7082C20D2DFE804F004070A0D0F124D
:10397000191C43F0300317E043F0100314E043F048
:10398000200311E000BF0FE043F038030CE043F0E8
:10399000280309E0FEFF01602A03002043F018031A
:1039A00002E043F0080300BF00BFFE48808848F6ED
:1039B0008911884204D1112646F24000034302E0F7
:1039C000032643F4805319463046FFF7FEFD70BDD1
:1039D00030B504460D4629462046FFF723FEFFF783
:1039E00004FEF1480088F149088030BD30B5034637
:1039F0000C461546EB48808849F24131884205D093
:103A0000E848808846F60401884214D1E549087ADE
:103A1000FFF7D0FD1812FFF7D0FDD8B2FFF7CDFDAC
:103A2000E049487AFFF7C6FD2012FFF7C6FDE0B275
:103A3000FFF7C3FD12E0DB488079012804D1D948A3
:103A40000088401EC01A83B2D649087A1946FFF78B
:103A5000BCFDD449487A2146FFF7B7FDD148C0796B
:103A6000D249891E0880881C058030BD10B50446E7
:103A7000002C3DD1CB498871F02008804FF4A07014
:103A800048800846808849F24131884205D0C548BF
:103A9000808846F60401884214D12C20C149C8719F
:103AA0002A2008722B2048720846808846F60401B6
:103AB00088424ED14FF4A070BA4908804FF4F0709C
:103AC000488046E0B748808848F68911884207D187
:103AD0002220B449C8714E2008724F20487238E045
:103AE0002220B049C871202008722120487230E09D
:103AF000AC48808846F6040188422AD00120A949B2
:103B000088714FF4A0700880F020488008468088B3
:103B100049F24131884207D12C20A249C8712A209C
:103B200008722B20487214E09E48808848F689115C
:103B3000884207D122209B49C8714F2008724E202D
:103B4000487206E022209749C8712120087220207F
:103B500048720020FFF755FE10BD70B504460026E0
:103B6000904805884088454300210846FFF75AFDE4
:103B7000FFF73BFD00BF02E08C480480761CAE429C
:103B8000FAD370BD00B59FB001210802FDF71BFDFF
:103B900001216920FDF724FD0120ADF878001020F7
:103BA0008DF87B0003208DF87A001EA98048FDF770
:103BB0005BFA4CF23370ADF8780018208DF87B007A
:103BC00003208DF87A001EA97A48FDF74DFA4FF6CA
:103BD0008070ADF8780018208DF87B0003208DF8F8
:103BE0007A001EA97448FDF73FFA4FF40860ADF85B
:103BF000780018208DF87B0003208DF87A001EA92C
:103C00006C48FDF731FA01200890002009900F2040
:103C10000A9000200B900C900D900E900190029055
:103C200003200390002004900590069007900F90C9
:103C30001090119010201290002013901590149065
:103C4000169017904FF480501890002019904FF460
:103C500080401A9000201B9008A81C9001A81D907D
:103C60000FA8FCF7E7FE01210020FDF74BF83220FA
:103C7000FEF7EFFF01210020FFF7A7FC3220FEF73F
:103C8000E8FF0020FFF7A6FC4649888008468088A8
:103C9000FF280ADB084680884FF6FF71884204D06F
:103CA00040488088B0F5134F4BD1D320FFF782FCFA
:103CB000FFF787FCFFF785FCFFF783FC3949888015
:103CC000084680884FF6FF7101EA00203549888058
:103CD000FFF777FC334989880843324988800846D2
:103CE000808849F2413188421BD0BF20FFF762FC37
:103CF000FFF767FCFFF765FCFFF763FCFFF761FC6C
:103D000028498880084680884FF6FF7101EA002024
:103D100024498880FFF755FC2249898808432149B6
:103D200088802048808849F24131884209D01D4866
:103D3000808846F60401884203D049F2413019498F
:103D40008880184881881DA001F092FB1548808862
:103D500049F2413188427CD01248808846F60401FD
:103D60008842F8D00F48808849F225318842F2D045
:103D70000C488088C91C8842EDD00A48808849F2E6
:103D80002031884266D100210846FFF71EFC4FF41F
:103D900080710120FFF719FC4FF4E0610220FFF76A
:103DA00014FC13E02A0300204600002000000260FB
:103DB000000C01400014014000180140204C434415
:103DC0002049443A25780D0A0000000041F23001F4
:103DD0000320FFF7FAFB00210420FFF7F6FB40F277
:103DE00002210820FFF7F1FB00210920FFF7EDFB7E
:103DF00000210A20FFF7E9FB01210C20FFF7E5FB7A
:103E000000210D20FFF7E1FB00210F20FFF7DDFB74
:103E10003220FEF71EFF40F201110720FFF7D5FB0D
:103E20003220FEF716FF4FF486511020FFF7CDFB2E
:103E300007211120FFF7C9FB4FF488711220FFF70B
:103E4000C4FB4FF430611320FFF7BFFB0021292092
:103E500001E087E05BE0FFF7B8FB44F210012B20A4
:103E6000FFF7B3FB00215020FFF7AFFBEF215120FC
:103E7000FFF7ABFB00215220FFF7A7FB40F23F11F9
:103E80005320FFF7A2FB4FF41C516020FFF79DFB6E
:103E900001216120FFF799FB00216A20FFF795FBC4
:103EA00000218020FFF791FB00218120FFF78DFB8F
:103EB00000218220FFF789FB00218320FFF785FB8B
:103EC00000218420FFF781FB00218520FFF77DFB87
:103ED00010219020FFF779FB00219220FFF775FB5E
:103EE00001219320FFF771FB4FF488719520FFF7B4
:103EF0006CFB00219720FFF768FB00219820FFF75B
:103F000064FB40F273110720FFF75FFB2AE0FC48D7
:103F1000808849F23131884224D0F948808845F2BE
:103F2000084188421ED0F648808841F205518842F7
:103F300018D0F34880884BF20551884212D0F048DF
:103F400080884CF2055188420CD0ED48808848F6B4
:103F50008911884206D0EA48808844F2315188426B
:103F600000D000BF0020FFF781FD0120E549086077
:103F70004FF6FF70FFF7F1FD1FB000BD2DE9F04FC8
:103F800005460E4617469846DDF824A04FF0000B74
:103F9000781B401C1FFA80FB344613E0214628465C
:103FA000FFF740FBFFF721FB4FF0000906E050460A
:103FB000FFF703FB09F101001FFA80F9D945F6DB91
:103FC000601C84B24445E9DDBDE8F08F2DE9F84F6F
:103FD00007460D4690469946DDF828B0A8EB070045
:103FE000401C80B20090A9EB0500401C1FFA80FA2B
:103FF000002415E0281981B23846FFF713FBFFF7BC
:10400000F4FA002607E004FB0A603BF81000BE4902
:104010000880701C86B200988642F4DB601C84B273
:104020005445E7DBBDE8F88F2DE9FF4F84B08146AA
:104030008A460020039002900698A0EB0905079895
:10404000A0EB0A06CDF80490CDF800A0002D01DD0C
:10405000012705E00DB9002702E04FF0FF376D4260
:10406000002E02DD4FF0010806E016B94FF00008FF
:1040700002E04FF0FF387642B54201DD2C4600E009
:1040800034464FF0000B21E0009A91B2019A90B2B1
:10409000FFF79EFC03982844039002983044029056
:1040A0000398A04205DD0398001B03900198384453
:1040B00001900298A04205DD0298001B0290009832
:1040C000404400900BF101001FFA80FB601C834507
:1040D000DADD08B0BDE8F08FF0B504460D461646AF
:1040E0001F462B46324629462046FFF79DFF3B469A
:1040F000224629462046FFF797FF3B46324639467F
:104100002046FFF791FF3B46324629463046FFF7EF
:104110008BFFF0BD2DE9F04306460F469046002484
:1041200045460320A0EB48093CE07A1B91B23219C6
:1041300090B2FFF74DFC3A1B91B2721990B2FFF7A3
:1041400047FC3A1991B2721990B2FFF741FC7A1903
:1041500091B2321990B2FFF73BFC7A1991B2321B3F
:1041600090B2FFF735FC3A1991B2721B90B2FFF78B
:104170002FFC7A1B91B2321B90B2FFF729FC3A1B3D
:1041800091B2721B90B2FFF723FC641CB9F1000FCF
:1041900003DAA000801D814404E0601B80000A3027
:1041A00081446D1EAC42C0DDBDE8F0832DE9F84FBF
:1041B00005460F4690461E4600975448B0F80090BA
:1041C000A8F1200000F0FF080A9800284ED1002432
:1041D00049E00C2E07D108EB48004D4901EB800067
:1041E00010F804A004E04B4800EB081010F804A0FD
:1041F0004FF0000B31E00AF0800018B14348A0F8FE
:10420000009003E044480088404908803946284629
:10421000FFF7DEFB4FEA4A604FEA106A781C87B26C
:1042200037480088A84204DC3848A0F80090BDE870
:10423000F88F0098381AB0420BD1009F681C85B2E5
:104240002F480088A84203DC3048A0F80090EEE731
:1042500006E00BF1010000F0FF0BBBF1080FCADB19
:1042600000BF601CC4B2B442B3DB44E0002440E0B1
:104270000C2E07D108EB4800254901EB800010F80F
:1042800004A004E0234800EB081010F804A04FF04D
:10429000000B28E00AF0800018B139462846FFF7E5
:1042A00097FB4FEA4A604FEA106A781C87B21448BD
:1042B0004088A84203DC1548A0F80090B7E70098B2
:1042C000381AB0420BD1009F681C85B20C48008898
:1042D000A84203DC0D48A0F80090A8E706E00BF127
:1042E000010000F0FF0BBBF1080FD3DB00BF601C27
:1042F000C4B2B442BCDB0548A0F8009000BF96E70A
:104300002A03002080812142000002604600002034
:10431000AA5700081E5C00084800002010B502469D
:10432000012000E050430B1EA1F10104E1B2F9D1DC
:1043300010BD2DE9FF4F81B0074691461E460E9DE8
:104340004FF0000A002439E0301B401EC1B20A20A1
:10435000FFF7E4FFB9FBF0F00A21B0FBF1F201FB3B
:104360001208BAF1000F16D1701EA04213DDB8F189
:10437000000F0ED10020AB4605EBDB71491001FBAD
:104380000471009088B22B4620220299FFF70EFF9D
:1043900012E04FF0010A0020AB4605EBDB7149103B
:1043A00001FB0471009088B208F13001CAB22B46BB
:1043B0000299FFF7FBFE00BF601CC4B2B442C3DB2E
:1043C00005B0BDE8F08F2DE9FF4F82B0064692465A
:1043D0001F46DDE90F480020019000254DE0781BC5
:1043E000401EC1B20A20FFF799FFBAFBF0F00A2184
:1043F000B0FBF1F201FB1209019850BB781EA842F4
:1044000027DDB9F1000F22D108F0800078B108F063
:104410000100A34604EBDB71491001FB056100902C
:1044200088B2234630220399FFF7C0FE0EE008F061
:104430000100A34604EBDB71491001FB056100900C
:1044400088B2234620220399FFF7B0FE13E0012033
:10445000019008F00100A34604EBDB71491001FB59
:104460000561009088B209F13001CAB22346039970
:10447000FFF79CFE00BF681CC5B2BD42AFDB06B0B3
:10448000BDE8F08F2DE9F84704460D469046994661
:10449000DDE9096704F0FF0A08EB04001FFA80F861
:1044A00009EB05001FFA80F916E0444502DB54468B
:1044B000A81985B24D4500DB14E0002000903A7841
:1044C000334629462046FFF771FE304606EBD07191
:1044D00004EB61018CB27F1C38787E2802DC3878CE
:1044E0002028E2DA00BFBDE8F88700002DE9F0419E
:1044F00005460E4614464348078804803146284640
:10450000FFF766FA3F480780BDE8F0812DE9F05FCC
:1045100006460C4617469846A34600252AE017F89B
:1045200005904FF0000A1FE009F0800028B14246D4
:1045300021463046FFF7DAFF04E0214630460A9A6A
:10454000FFF7D4FF4FEA49604FEA1069601C84B25C
:10455000A4EB0B00102803D15C46701C86B206E069
:104560000AF1010000F0FF0ABAF1080FDCDB00BF1E
:10457000681CC5B2202DD2DBBDE8F09F2DE9F84FB5
:104580000546884616461F46DDE90A9A00240DE0D6
:1045900006EB44124B4641462846CDF800A0FFF7F3
:1045A000B5FF05F1100085B2601CC4B2BC42EFDB60
:1045B000BDE8F88F2DE9F04782460C4615461E46A9
:1045C000089F4FF0000918E021465046FFF72AF8EF
:1045D000FFF70BF84FF0000807E037F8020BFEF783
:1045E000ECFF08F101001FFA80F8A845F5DB601C1C
:1045F00084B209F101001FFA80F9B145E4DBBDE89E
:10460000F0870000460000202DE9FC4106460F46D9
:1046100014461D462088A0806088E0806D48008890
:104620006D490988CDE90010618820882B463A46FB
:10463000FFF7A4FF208800EB0510208060886080D1
:104640002068306060687060BDE8FC812DE9F04151
:1046500005460E4614461F46DDF818806088E08047
:10466000B8F1000F01D0A08800E010202080608801
:10467000183060803B46224631462846FFF7C4FF8B
:10468000BDE8F0812DE9FC4106460F4614461D4663
:104690002088A0806088E080504A108800EBD072AB
:1046A0005310294605EBD1725210A3EB021222805F
:1046B0002B46224639466846FFF7A6FF0098206041
:1046C000019860606088183060801020A0802068A9
:1046D000306060687060BDE8FC812DE9FC410646F1
:1046E0000D4614462088A0806088E080284600F0AF
:1046F000B9F8C006070E1020CDE9000561882088B2
:1047000010233A46FFF7BEFE2088384420802068F8
:10471000306060687060BDE8FC81F0B587B0074626
:104720000D4616461C462A462DA102A800F0B0FEF2
:10473000314602A800F08AF8224602A96846FFF72F
:10474000CCFFA0882080E0886080206838606068A6
:10475000786007B0F0BD0EB5FFF714FA2148422388
:1047600047220E2100905520FFF724FF10201E49FC
:10477000088054204880102088805420C88004235A
:104780000A461A4901A8FFF77DFF00200223164AB6
:104790001749009001A8FFF759FF134A15A101A876
:1047A000FFF79BFF144801990160029941600020C6
:1047B00002230D4A1149009001A8FFF747FF0A4A5A
:1047C0000CA101A8FFF789FF0D480199016002992A
:1047D00041600EBD48000020460000202A03002052
:1047E000256400000E6200084A00002062000020DC
:1047F000E20000203A0000005A00002022010020C0
:104800005200002040EA01039B0703D009E008C9D9
:10481000121F08C0042AFAD203E011F8013B00F885
:10482000013B521EF9D27047D2B201E000F8012BD1
:10483000491EFBD270470022F6E710B513460A4620
:1048400004461946FFF7F0FF204610BD421E12F83D
:10485000013F002BFBD111F8013B02F8013B002B7B
:10486000F9D17047421C10F8011B0029FBD1801AB6
:10487000704710B5002200E0521C835C8C5CA342A0
:1048800001D1002BF8D1D8B2E1B2401A10BD00001E
:104890000FB400B58DB010A909900B9000914FF0A6
:1048A000FF300A9000200C900548069005480790BC
:1048B0006A4609A80F9900F093FA0DB05DF814FB51
:1048C000FD4D00081B4E00082DE9FF5FD2E901A74E
:1048D0004FF00008916999461446DDF838B0464615
:1048E00001988847054659EA0B0005D009E0A169FF
:1048F000761C019888470546216A28468847002883
:10490000F5D1681C03D05FEACA7005D015E04FF0FE
:10491000FF3004B0BDE8F09F2068011D2160D0F891
:1049200000800AE05FEACA7001D108F8015BA16962
:10493000761C7F1E019888470546002F1ADD681CEB
:1049400018D0B9F1000F0DD0E81705EBD060421177
:1049500020F01F0059F822102A1A0120904001422D
:10496000E0D107E0BBF1000FDCD1216A284688477F
:104970000028D7D0E16901988847BBF1000F07D123
:10498000002E05DD5FEACA7002D1002188F8001010
:10499000A068B84203DDBBF1000F03D017B16FF080
:1049A0000100B6E73046B4E770B5064600F084FD76
:1049B000046805460A220021304600F03FFA2C60C8
:1049C00070BD80EA010210B502F00043400022D021
:1049D0004A001FD0010E01EB1261C0F35600C2F372
:1049E000560240F4000042F40002A0FB0220000442
:1049F0007F39140400D0401C50EA124001D440001A
:104A0000491EC2B20C0604EBD010401C4008802A9C
:104A100002D003E0002010BD20F00100002900DAE0
:104A20000020184310BD30B480EA010202F00045B6
:104A300030F0004221F0004013D090B1C30DD40DEE
:104A4000C2F31601C0F31600E41A41F4000140F469
:104A500000027D34914201D3641C00E04900002C27
:104A600002DA30BC002070474FF40000002391426E
:104A700001D3891A034340084FEA4101F7D151B1EC
:104A8000914202D14FF0004105E002D24FF0010106
:104A900001E06FF0010103EBC450284430BC00F08A
:104AA00005BA2DE9FE4F81EA030404F0004421F029
:104AB000004100944FF0000B23F0004350EA010442
:104AC0005ED052EA03045BD0C3F30A54C1F30A5523
:104AD0002C44A4F2F3340194A0FB0254C1F313015B
:104AE00041F48011C3F3130343F4801301FB024428
:104AF00000FB034E840A970A44EA815447EA83572D
:104B0000A4FB076802958D0A05FB07854FEA932CE5
:104B100004FB0C542705029D4FEA065847EA163756
:104B2000B5EB08056EEB070C870E920E47EA81176E
:104B300042EA8312A7FB0201B6EB0B0164EB00040F
:104B40002B0D43EA0C335E1844EB1C50DA465146F9
:104B5000E7FB0201C5F313044FEA0B3343EA145396
:104B60004FEA0432019C43EA0603A4F10C040294C8
:104B7000009CCDE900B400F0DFF903B0BDE8F08F90
:104B800000200146F9E72DE9F04D81EA030404F025
:104B9000004B21F0004514464FF0000A23F000417D
:104BA00050EA050220D054EA01021DD0C5F30A578D
:104BB0000246C5F31303C1F31300C1F30A5640F4D0
:104BC000801543F48013A7EB0608101BD64608F2A5
:104BD000FD3873EB050002D308F1010801E09218DB
:104BE0005B41B8F1000F03DA00200146BDE8F08D0B
:104BF00000204FF48011064684460EE0171B73EB2D
:104C0000050705D3121B63EB050306434CEA010CB1
:104C100049084FEA300092185B4150EA0107EDD194
:104C200052EA030012D082EA040083EA0501084335
:104C300005D0101BAB4106D20122002306E0002262
:104C40004FF0004302E06FF0010253101AEB060030
:104C50004CEB085110EB0A0041EB0B01BDE8F04DA5
:104C600000F05BB9C10F80EAE0700844CA079623E0
:104C7000002100F024B90EB5C10F80EAE0700844AD
:104C8000CA07002140F233438DE80E000A460B4666
:104C900000F052F903B000BD20F00040C10DC0F398
:104CA000160040F400007F2901DA002070479629A1
:104CB00003DCC1F19601C8407047963988407047BF
:104CC000C1F30A5210B5C1F3130140F2FF3341F4AE
:104CD00080119A4201DA002010BD40F233439A421B
:104CE000A2F2334203DC524200F063F810BD904060
:104CF00010BD00F0004230F000400AD0C10D01F5B7
:104D00006071C0F3160042EA0151C2084007114326
:104D1000704700200146704701F0004330B421F095
:104D2000004150EA010206D00A0DA2F56072C1F3FB
:104D30001301002A02DC30BC00207047440F44EA13
:104D4000C104C100E01830BC00EBC25000F0AEB8A6
:104D50002DE9F05F0546002092469B4688460646B0
:104D6000814640241BE0284641464746224600F043
:104D700020F853465A46C01A914110D3114618469E
:104D8000224600F039F92D1A67EB01084F462246FA
:104D90000120002100F030F917EB00094E41201EE0
:104DA000A4F10104DFDC484631462A464346BDE80B
:104DB000F09F202A04DB203A21FA02F000217047FC
:104DC00021FA02F3D040C2F1200291400843194673
:104DD000704700000268114413780160184670475C
:104DE000D1600449516104491162002111611146E9
:104DF00000F020B9D54D000821500008426842B1AA
:104E0000016811F8013B23B1521EC0E90012184697
:104E100070470121C160881E704742685AB1C3685B
:104E2000016843B983688B4205D0491E521CC0E912
:104E30000012002070474FF0FF3070472DE9F04717
:104E400091460F4680460446002614F8015B2DB1BA
:104E500000F0E2F80068405DC007F6D12B2D02D0CB
:104E60002D2D18D0641E4A463946204600F078FAA7
:104E700027B13968A14201D1C7F8008071054FF010
:104E800002040BD54042002803DD00F015FB04604E
:104E9000A007BDE8F08746F48066E4E70028F8DA6A
:104EA00000F00AFB04606FF00040F2E70029A8BFA1
:104EB0007047401C490008BF20F00100704710B443
:104EC000B0FA80FC00FA0CF050EA010404BF10BCF8
:104ED000704749B1CCF1200421FA04F411FA0CF125
:104EE00018BF012121430843A3EB0C01CB1D4FEA5E
:104EF00000614FEA102042BF002010BC704700EB59
:104F0000C35010440029A4BF10BC7047401C490086
:104F100008BF20F0010010BC704710B5141E73F1DB
:104F2000000408DA401C41F1000192185B411A4369
:104F300001D120F0010010BD2DE9F04D92469B46B5
:104F400011B1B1FA81F202E0B0FA80F2203290465B
:104F500000F052F804460F4640EA0A0041EA0B010D
:104F600053465A46084313D0114653EA010019D05C
:104F7000C8F140025046FFF71CFF05460E4650465A
:104F80005946424600F038F8084305D0012004E0B5
:104F900020463946BDE8F08D0020054346EAE0761C
:104FA0002C4337430A986305E40AA0EB080000226B
:104FB000FD0A44EA47540A3002D500200146E9E7D9
:104FC000010510196941DDE9084500196941BDE88D
:104FD000F04DA2E7064C074D06E0E06840F0010303
:104FE00094E8070098471034AC42F6D3FBF7A4F8D6
:104FF0003887000858870008202A04DB203A00FA86
:1050000002F1002070479140C2F1200320FA03F31F
:1050100019439040704700000048704734870008EB
:1050200010B50446FFF7F8FF0068005D00F00100CE
:1050300010BD00002DE9F34F8BB04FF0000801F1D7
:105040000C000C464FF0010B46460DF1080A01908A
:105050006269012101989047051E2DD0252D2CD085
:10506000216A8847C0B16269012101989047216A8D
:1050700088470028F7D1411E62690198904700E0F7
:10508000761CA1690B988847216A88470028F7D1C8
:10509000E1690B988847DBE7A1690B9888470746C9
:1050A000A84201D1761CD3E7E1690B9888477F1CA1
:1050B00002D1B8F1000F6FD046E1002762693D468A
:1050C0003946019890472A2804D162690121019844
:1050D00090470125DFF88492626901210198904789
:1050E000A0F130010A290AD24F45E5DC07EB870120
:1050F00000EB4107303FDFD445F01005ECE7E9064F
:1051000001D46FF000476C280AD04C2814D06828CE
:1051100015D06A280DD074281CD07A281AD01DE02A
:1051200062690121019890476C2802D045F004057E
:1051300014E045F002050DE045F020050AE0626943
:10514000012101989047682802D045F0080505E044
:1051500045F400656269012101989047C4E901574F
:1051600065283DD019DC58287AD00CDC452837D08A
:1051700004DC252826D0412831D131E046282FD023
:1051800047282CD12CE05B2877D0612828D06328D1
:105190007CD0642823D15AE0D0E06F2848D008DCC6
:1051A00066281DD067281BD0692821D06E2816D10B
:1051B00027E0702845D0732868D0752847D0782814
:1051C0000DD14DE0A1690B988847054625283FF48D
:1051D00069AFE1690B9888476D1C3FF46AAFB3E093
:1051E00023466A466FF001000B99AFF300809EE002
:1051F00045F040006060A80723464FF0000236D417
:105200003EE0E8077FF447AF2068011D2160006899
:10521000290501D506701BE7290701D5068017E788
:10522000A90703D5F117C0E9006111E706600FE790
:1052300045F040006060A80723464FF0080216D4EE
:105240001EE040F60E0125EA0100606016E045F020
:1052500040006060A80723464FF00A0207D40FE021
:1052600045F040006060A80708D5234610226FF083
:1052700001000B99AFF3008059E007E023461022AC
:105280006FF001000B99AFF3008050E04FF0000980
:105290004F464B46632802D05B2806D040E0E80624
:1052A00001D40120A06001273AE062690121019840
:1052B00090475E2805D14FF001096269494601987F
:1052C0009047216939B900210A46534643F8212005
:1052D000491C0829FADBB0B3216969B9C11700EB91
:1052E000D16253110AEB830122F01F02821A0120BE
:1052F0000B68904003430B6062690121019890475D
:105300005D28E8D1B9F1000F09D00020514651F8CD
:105310002020D24341F82020401C0828F7DB02ABB4
:10532000224600976FF001000B99FFF7CDFA002895
:105330000CDA401C08D1BBF1000F05D04FF0FF3054
:105340000DB0BDE8F08FFFE74046F9E7E90701D16E
:1053500008F1010806444FF0000B79E6CCCCCC0CE8
:105360002DE9F05F82460078002715468B460AF14A
:105370000104B946302801D09DB113E014F8010BA7
:105380000127782803D0582801D045B10AE00DB193
:10539000102D07D10027102514F8010B02E0082575
:1053A00000E00A250026B0460EE005FB080005FBDC
:1053B00006F1012701EB10461FFA80F8B6F5803F91
:1053C00000D3B94614F8010B294600F018F800285C
:1053D000EBDABBF1000F05D00FB1641E00E05446BC
:1053E000CBF80040B9F1000F06D000F065F80221BB
:1053F0000160C81EBDE8F09F48EA0640FAE73A2877
:1054000000D2303820F02002412A01D3A2F1370027
:10541000884201D34FF0FF30704770B58C1810F8F8
:10542000015B15F0070301D110F8013B2A1106D1E9
:1054300010F8012B03E010F8016B01F8016B5B1E03
:10544000F9D12B0705D40023521E0DD401F8013BDE
:10545000FAE710F8013BCB1A921C03E013F8015B4A
:1054600001F8015B521EF9D5A142D8D3002070BDCE
:105470000FB4054B10B503A9044A029800F030F8A8
:1054800010BC5DF814FB0000993400083C000020BB
:105490000FB4084B10B504A902AA039800F020F835
:1054A000044602A9002000F07BF9204610BC5DF8FC
:1054B00014FB0000A1570008004870478401002039
:1054C00002E008C8121F08C1002AFAD170477047CD
:1054D000002001E001C1121F002AFBD1704700002B
:1054E0002DE9FF4F8DB09B460F460446002606E08F
:1054F00025280BD05A460F999047641C761C2078BB
:105500000028F5D111B03046BDE8F08F0025A8463F
:105510000122984900E0054314F8013F203B02FABC
:1055200003F00842F7D120782E2817D114F8010F84
:1055300045F004052A280ED06FF02F022078A0F144
:10554000300109290AD808EB880102EB410100EB80
:105550000108641CF2E757F8048B641C20786C285F
:105560000DD004DC4C2812D06A2811D104E0742834
:105570000DD07A280CD10AE045F4001507E06178D7
:1055800045F48015814202D1641C05F58015641C28
:105590002278692A45D008DC002AB3D0582A69D07D
:1055A000632A10D0642A08D13BE0702A67D0732A9E
:1055B00013D0752A5CD0782A5CD010465A460F99D1
:1055C0009047761CD3E017F8040B8DF800000020FC
:1055D0008DF80100E946012003E057F8049B4FF0E5
:1055E000FF3069074FF0000501D40AE06D1C454506
:1055F0000DDA8542FADB19F805100029F6D106E02C
:105600006D1C8542FCDB19F805100029F8D12E44E9
:1056100004E019F8010B5A460F9990476D1EF8D215
:10562000A5E00A200021CDE90801C5F302500228B7
:105630000DD001CFC117031E71F100030DDA4FF039
:10564000000CD0EB0C006CEB01012D2308E0FF1DDA
:1056500027F00707F7E80201EDE72B0504D52B2318
:105660008DF8283001233BE0EB0739D02023F7E702
:105670000A2000E010200021CDE9080107E01020F9
:10568000002145F00405CDE908014FF00808C5F3F5
:10569000025002280FD001CF00214FF0000A2B0743
:1056A0001FD5702A0DD0DDE908C38CF0100C5CEA20
:1056B000030C0CD015E0FF1D27F00707F7E80201E7
:1056C000EBE740228DF828204FF0010A0BE050EA6A
:1056D000010306D030238DF828308DF829200223CD
:1056E0009A46582A04D024A20DF120090B9209E011
:1056F00026A2F9E7DDE90823FFF72AFB0B9B9B5C59
:1057000009F8013D50EA0102F4D1ADEB0900203067
:105710000890680701D44FF001080899884502DD18
:10572000A8EB010000E000208046002506E00AA862
:105730005A46405D0F9990476D1C761C5545F6DB27
:1057400004E030205A460F999047761CB8F10001CA
:10575000A8F10108F5DC05E019F8010B5A460F998C
:105760009047761C0899481E08900029F4DC641CB8
:10577000C5E60000092801003031323334353637B0
:10578000383961626364656600000000303132338D
:10579000343536373839414243444546000000002D
:1057A0000A68531C0B601070704700000000000076
:1057B000000000000000000000003F40000000006A
:1057C00000000000300040003000400000000900F0
:1057D0000BC03D000BC03D00090018C024407FE015
:1057E000224031800000180024C01B000D80324090
:1057F000018003801C4027401C80074000401000AF
:105800006000000000000000000000000000000038
:105810001F80204040200000402020401F800000CA
:105820000000090006001F800600090000000400B7
:1058300004003F800400040000000010006000002D
:105840000000000000000400040004000400040044
:1058500000000000004000000000000000000020E8
:1058600001C006003800400000001F80204020409A
:1058700020401F800000000010403FC0004000009A
:10588000000018C021402240244018400000108031
:105890002040244024401B80000002000D00110025
:1058A0003FC0014000003C8024402440244023802D
:1058B00000001F802440244034400380000030005A
:1058C000200027C03800200000001B802440244016
:1058D00024401B8000001C0022C0224022401F8068
:1058E0000000000000000840000000000000000070
:1058F00000000460000000000000000004000A0036
:105900001100208040400900090009000900090039
:10591000000000004040208011000A000400180030
:10592000200023402400180000001F802040274052
:1059300029401F400000004007C039000F0001C08F
:10594000004020403FC0244024401B8000001F80B6
:105950002040204020403080000020403FC02040B8
:1059600020401F80000020403FC024402E4030C017
:10597000000020403FC024402E00300000000F00F7
:105980001080204022403380020020403FC00400AD
:1059900004003FC02040204020403FC02040204025
:1059A00000000060202020203FC020002000204078
:1059B0003FC024400B0030C0204020403FC020406A
:1059C0000040004000C03FC03C0003C03C003FC05E
:1059D000000020403FC00C4023003FC020001F803B
:1059E0002040204020401F80000020403FC0244035
:1059F0002400180000001F802140214020E01FA04B
:105A0000000020403FC02440260019C0004018C0BC
:105A100024402440224031800000300020403FC01C
:105A200020403000000020003F80004000403F80C8
:105A3000200020003E0001C0070038002000380090
:105A400007C03C0007C038000000204039C00600F5
:105A500039C0204000002000384007C038402000F6
:105A60000000304021C02640384020C00000000027
:105A700000007FE0402040200000000070000C008B
:105A80000380004000000000402040207FE0000034
:105A90000000000020004000200000000000001076
:105AA0000010001000100010001000000000400066
:105AB000000000000000000002800540054003C017
:105AC000004020003FC0044004400380000000006C
:105AD00003800440044006400000000003800440AE
